S0160000766F74696E675F6D616368696E652E7372656343
S11300000C94BA000C94CF000C94CF000C94CF0045
S11300100C94CF000C94CF000C94CF000C94CF0020
S11300200C94CF000C94CF000C94CF000C94CF0010
S11300300C94CF000C94CF000C94CF000C94CF0000
S11300400C94CF000C94CF000C94CF000C94CF00F0
S11300500C94CF00F3000C0125013E01560156011A
S113006056015601560156015601560156015601D4
S113007056015601560156015601560156015601C4
S113008056015601560156015601560156015601B4
S113009056015601F3000C0125013E0163017C0168
S11300A09501AE01C601C601C601C601C601C6015D
S11300B0C601C601C601C601C601C601C601C60104
S11300C0C601C601C601C601C601C601C601C601F4
S11300D0C601C601C601C601C601C60163017C0191
S11300E09501AE01D301E701FB010F0223022302B4
S11300F023022302230223022302230223022302D4
S113010023022302230223022302230223022302C3
S113011023022302230223022302230223022302B3
S113012023022302D301E701FB010F023202390249
S1130130400247024D024D024D024D024D024D0256
S11301404D024D024D024D024D024D024D024D0233
S11301504D024D024D024D024D024D024D024D0223
S11301604D024D024D024D024D024D023202390242
S11301704002470211241FBECFE5D8E0DEBFCDBF49
S113018010E0A0E6B0E0ECEBFBE002C005900D92BD
S1130190A838B107D9F70E943D030C94DC050C94F0
S11301A0000040E00E94E7000895CF93DF93C82F3A
S11301B0D62F40E00E94E70041E06D2F8C2F0E9473
S11301C05701DF91CF9108950E94C701089590E0EF
S11301D0FC01E154F109E432F10508F067C0E65D81
S11301E0FF4F0C94D605413059F42AB381E090E0D6
S11301F002C0880F991F6A95E2F7822B8ABB089583
S11302002AB381E090E002C0880F991F6A95E2F753
S1130210809582238ABB0895413059F427B381E045
S113022090E002C0880F991F6A95E2F7822B87BB82
S1130230089527B381E090E002C0880F991F6A9562
S1130240E2F78095822387BB0895413059F424B3A3
S113025081E090E002C0880F991F6A95E2F7822B33
S113026084BB089524B381E090E002C0880F991FF5
S11302706A95E2F78095822384BB0895413059F44E
S113028021B381E090E002C0880F991F6A95E2F7DC
S1130290822B81BB089521B381E090E002C0880FD6
S11302A0991F6A95E2F78095822381BB089590E0B7
S11302B0FC01E154F109E432F10508F067C0E25BA6
S11302C0FF4F0C94D605413059F42BB381E090E0F4
S11302D002C0880F991F6A95E2F7822B8BBB0895A1
S11302E02BB381E090E002C0880F991F6A95E2F772
S11302F0809582238BBB0895413059F428B381E063
S113030090E002C0880F991F6A95E2F7822B88BBA0
S1130310089528B381E090E002C0880F991F6A9580
S1130320E2F78095822388BB0895413059F425B3C0
S113033081E090E002C0880F991F6A95E2F7822B52
S113034085BB089525B381E090E002C0880F991F12
S11303506A95E2F78095822385BB0895413059F46C
S113036022B381E090E002C0880F991F6A95E2F7FA
S1130370822B82BB089522B381E090E002C0880FF3
S1130380991F6A95E2F78095822382BB089590E0D5
S1130390FC01E154F109E432F10508F054C0EE58CF
S11303A0FF4F0C94D60549B381E090E09C01062EE2
S11303B002C0220F331F0A94E2F7842F90E08223B5
S11303C0932302C0959587956A95E2F7089546B3FD
S11303D081E090E09C01062E02C0220F331F0A9494
S11303E0E2F7842F90E08223932302C095958795AA
S11303F06A95E2F7089543B381E090E09C01062EEC
S113040002C0220F331F0A94E2F7842F90E0822364
S1130410932302C0959587956A95E2F7089540B3B2
S113042081E090E09C01062E02C0220F331F0A9443
S1130430E2F7842F90E08223932302C09595879559
S11304406A95E2F7089580E008956295607F90E0F0
S1130450FC01E154F109E432F105F8F4EA56FF4FE6
S11304600C94D6058BB38F708BBB8BB3682B6BBB93
S1130470089588B38F7088BB88B3682B68BB0895D0
S113048085B38F7085BB85B3682B65BB089582B334
S11304908F7082BB82B3682B62BB089541E062E037
S11304A084E40E9457018FE99FE00197F1F700C0AF
S11304B0000040E062E084E40E9457018FE99FE07D
S11304C00197F1F700C000000895CF93C82F40E0D2
S11304D060E084E40E9457016C2F62956F7084E49D
S11304E00E9425020E944E026C2F84E40E94250281
S11304F00E944E028FEC97E00197F1F700C00000D4
S1130500CF9108952FEF81EE94E0215080409040E8
S1130510E1F700C0000041E064E084E40E94E700E9
S113052041E065E084E40E94E70041E066E084E4A1
S11305300E94E70041E067E084E40E94E70041E0B4
S113054062E084E40E94E70041E061E084E40E9408
S1130550E70041E060E084E40E94E70040E061E0FD
S113056084E40E94570182E00E9465028FE19EE4C8
S11305700197F1F700C0000088E20E9465028FEC49
S113058097E00197F1F700C0000081E00E94650246
S11305908FE19EE40197F1F700C000008CE00E9417
S11305A065028FEC97E00197F1F700C0000086E048
S11305B00E9465028FEC97E00197F1F700C00000FC
S11305C00895CF93C82F41E060E084E40E9457016E
S11305D06C2F62956F7084E40E9425020E944E0283
S11305E06C2F84E40E9425020E944E02CF9108954C
S11305F0CF93DF93EC0103C00E94E102219688812E
S11306008111FACFDF91CF91089581E00E946502B4
S11306108FE19EE40197F1F700C0000008959FEF79
S1130620980F923070F4613170F4662371F0813068
S113063019F48FE7860F0CC0823049F48FEB860FD4
S113064007C080E805C080E803C080E801C080E0FE
S11306500E9465028FEC97E00197F1F700C000005B
S1130660089541E00E94E700089541E00E94570187
S1130670089540E00E94570108950E94820260E0BC
S113068082E40E94D50061E082E40E94D50062E029
S113069082E40E94D50063E082E40E94D50064E015
S11306A082E40E94D50060E081E40E94D10061E010
S11306B081E40E94D10060E083E40E94310361E0A0
S11306C083E40E94310362E083E40E94310363E027
S11306D083E40E94310364E083E40E94310365E013
S11306E083E40E94310366E083E40E94310380E6E0
S11306F090E00E94F8026CE081E00E940F0384E61F
S113070090E00E94F80261E082E00E940F0388E614
S113071090E00E94F8026CE082E00E940F038CE6F5
S113072090E00E94F802712C812C912CA12CF72CC2
S1130730082D192DDA2D65E083E40E94390364E065
S113074083E40E94350361E081E40E94E400813087
S113075051F566E083E40E9439030E94050361E0D9
S113076081E00E940F0380E690E00E94F8026CE0B2
S113077081E00E940F0384E690E00E94F80261E0A9
S113078082E00E940F0388E690E00E94F8026CE089
S113079082E00E940F038CE690E00E94F802F12CA4
S11307A000E010E0D0E060E081E40E94E400C82FA3
S11307B0813061F466E083E40E94390364E083E4F9
S11307C00E94390365E083E40E943503CC2309F4D5
S11307D0B2CFB12CC12CD12CE12C60E082E40E9478
S11307E0E40081112EC0E11025C021E0D21207C01F
S11307F0115061E083E40E943903DE2C13C081E0D0
S1130800C81207C0015062E083E40E943903CE2C71
S113081009C091E0B91206C0FA9463E083E40E942F
S11308203903BE2CDF5F60E083E40E943503EE24CD
S1130830E394A2C0D15060E083E40E943903E12C28
S11308409BC061E082E40E94E40081112EC0D110BB
S113085025C021E0E21207C0D15060E083E40E9489
S11308603903ED2C13C081E0C81207C0015062E0C7
S113087083E40E943903CD2C09C091E0B91206C06B
S1130880FA9463E083E40E943903BD2C1F5F61E0A6
S113089083E40E943503DD24D3946EC0115061E0DB
S11308A083E40E943903D12C67C062E082E40E9491
S11308B0E40081112EC0C11025C021E0E21207C05E
S11308C0D15060E083E40E943903EC2C13C081E032
S11308D0D81207C0115061E083E40E943903DC2C74
S11308E009C091E0B91206C0FA9463E083E40E945F
S11308F03903BC2C0F5F62E083E40E943503CC24EF
S1130900C3943AC0015062E083E40E943903C12CCD
S113091033C063E082E40E94E40081112DC0B11071
S113092025C021E0E21207C0D15060E083E40E94B8
S11309303903EB2C13C081E0D81207C0115061E0D9
S113094083E40E943903DB2C09C091E0C91206C07C
S1130950015062E083E40E943903CB2CF39463E0FA
S113096083E40E943503BB24B39406C0FA9463E085
S113097083E40E943903B12C2FEF81EE94E02150DF
S113098080409040E1F700C0000064E082E40E94EF
S1130990E400C82F81118BC0AD1289C0911287C0A9
S11309A0801285C07F1083C00E94050380E790E019
S11309B00E94F8022FEF8EE994E22150804090408B
S11309C0E1F700C000000E94050361E081E00E949D
S11309D00F038CE790E00E94F802CDECDC9F612CC1
S11309E0112466946694669480E3860D0E94E10265
S11309F0660C862D880F880F680E8D2F8619805DF2
S1130A000E94E1026CE081E00E940F038FE790E016
S1130A100E94F8021C9F612C1124669466946694CB
S1130A2080E3860D0E94E102660C862D880F880FF4
S1130A30680E812F8619805D0E94E10261E082E0E8
S1130A400E940F0382E890E00E94F8020C9F612C40
S1130A50112466946694669480E3860D0E94E102F4
S1130A60660C862D880F880F680E802F8619805D8E
S1130A700E94E1026CE082E00E940F0385E890E0AE
S1130A800E94F802FC9EC12D1124C695C695C695F8
S1130A9080E38C0F0E94E102CC0F8C2F880F880F0B
S1130AA0C80F8F2D8C1B805D0E94E10296CEC11170
S1130AB014C060E083E40E94390361E083E40E948F
S1130AC0390362E083E40E94390363E083E40E9413
S1130AD0390366E083E40E943503C13009F47DCE16
S1130AE063E081E00E940F03CDECDC9FE12C112434
S1130AF0E694E694E69480E38E0D0E94E102EE0C07
S1130B008E2D880F880FE80E8D2F8E19805D0E9420
S1130B10E1026EE081E00E940F031C9FE12C11248E
S1130B20E694E694E69480E38E0D0E94E102EE0CD6
S1130B308E2D880F880FE80E812F8E19805D0E94FC
S1130B40E10263E082E00E940F030C9FE12C112478
S1130B50E694E694E69480E38E0D0E94E102EE0CA6
S1130B608E2D880F880FE80E802F8E19805D0E94CD
S1130B70E1026EE082E00E940F03FC9EC12D11246D
S1130B80C695C695C69580E38C0F0E94E102CC0FF2
S1130B908C2F880F880FC80F8F2D8C1B805D0E94AF
S1130BA0E1027F2C802E912EAD2EC1CDEE0FFF1FC2
S10F0BB00590F491E02D0994F894FFCF17
S1130BBC413D3000423D3000433D3000443D300067
S1130BCC706C6561736520766F746500413D0042FD
S10B0BDC3D00433D00443D00CF
S9030000FC
